{
    "contractName": "SPD_ico",
    "abi": [
        {
            "constant": false,
            "inputs": [
                {
                    "name": "_depo",
                    "type": "address"
                }
            ],
            "name": "new_deposit",
            "outputs": [],
            "payable": false,
            "stateMutability": "nonpayable",
            "type": "function"
        },
        {
            "constant": true,
            "inputs": [],
            "name": "supply",
            "outputs": [
                {
                    "name": "",
                    "type": "uint256"
                }
            ],
            "payable": false,
            "stateMutability": "view",
            "type": "function"
        },
        {
            "constant": true,
            "inputs": [],
            "name": "name",
            "outputs": [
                {
                    "name": "",
                    "type": "string"
                }
            ],
            "payable": false,
            "stateMutability": "view",
            "type": "function"
        },
        {
            "constant": false,
            "inputs": [
                {
                    "name": "spender",
                    "type": "address"
                },
                {
                    "name": "tokens",
                    "type": "uint256"
                }
            ],
            "name": "approve",
            "outputs": [
                {
                    "name": "",
                    "type": "bool"
                }
            ],
            "payable": false,
            "stateMutability": "nonpayable",
            "type": "function"
        },
        {
            "constant": true,
            "inputs": [],
            "name": "status",
            "outputs": [
                {
                    "name": "",
                    "type": "uint8"
                }
            ],
            "payable": false,
            "stateMutability": "view",
            "type": "function"
        },
        {
            "constant": false,
            "inputs": [
                {
                    "name": "to",
                    "type": "address"
                },
                {
                    "name": "value",
                    "type": "uint256"
                }
            ],
            "name": "transf",
            "outputs": [
                {
                    "name": "",
                    "type": "bool"
                }
            ],
            "payable": false,
            "stateMutability": "nonpayable",
            "type": "function"
        },
        {
            "constant": true,
            "inputs": [],
            "name": "trade_start",
            "outputs": [
                {
                    "name": "",
                    "type": "uint256"
                }
            ],
            "payable": false,
            "stateMutability": "view",
            "type": "function"
        },
        {
            "constant": true,
            "inputs": [],
            "name": "decimals",
            "outputs": [
                {
                    "name": "",
                    "type": "uint256"
                }
            ],
            "payable": false,
            "stateMutability": "view",
            "type": "function"
        },
        {
            "constant": true,
            "inputs": [],
            "name": "total_supply",
            "outputs": [
                {
                    "name": "",
                    "type": "uint256"
                }
            ],
            "payable": false,
            "stateMutability": "view",
            "type": "function"
        },
        {
            "constant": false,
            "inputs": [
                {
                    "name": "_from",
                    "type": "address"
                },
                {
                    "name": "_to",
                    "type": "address"
                },
                {
                    "name": "_value",
                    "type": "uint256"
                }
            ],
            "name": "transfer_from",
            "outputs": [
                {
                    "name": "",
                    "type": "bool"
                }
            ],
            "payable": false,
            "stateMutability": "nonpayable",
            "type": "function"
        },
        {
            "constant": true,
            "inputs": [],
            "name": "hard_cap",
            "outputs": [
                {
                    "name": "",
                    "type": "uint256"
                }
            ],
            "payable": false,
            "stateMutability": "view",
            "type": "function"
        },
        {
            "constant": true,
            "inputs": [],
            "name": "current_state",
            "outputs": [
                {
                    "name": "",
                    "type": "uint8"
                }
            ],
            "payable": false,
            "stateMutability": "view",
            "type": "function"
        },
        {
            "constant": true,
            "inputs": [],
            "name": "raised_amt",
            "outputs": [
                {
                    "name": "",
                    "type": "uint256"
                }
            ],
            "payable": false,
            "stateMutability": "view",
            "type": "function"
        },
        {
            "constant": false,
            "inputs": [],
            "name": "halt_ico",
            "outputs": [],
            "payable": false,
            "stateMutability": "nonpayable",
            "type": "function"
        },
        {
            "constant": false,
            "inputs": [],
            "name": "burn_tokens",
            "outputs": [
                {
                    "name": "",
                    "type": "bool"
                }
            ],
            "payable": false,
            "stateMutability": "nonpayable",
            "type": "function"
        },
        {
            "constant": true,
            "inputs": [],
            "name": "token_price",
            "outputs": [
                {
                    "name": "",
                    "type": "uint256"
                }
            ],
            "payable": false,
            "stateMutability": "view",
            "type": "function"
        },
        {
            "constant": true,
            "inputs": [],
            "name": "sales_start",
            "outputs": [
                {
                    "name": "",
                    "type": "uint256"
                }
            ],
            "payable": false,
            "stateMutability": "view",
            "type": "function"
        },
        {
            "constant": true,
            "inputs": [],
            "name": "owner",
            "outputs": [
                {
                    "name": "",
                    "type": "address"
                }
            ],
            "payable": false,
            "stateMutability": "view",
            "type": "function"
        },
        {
            "constant": true,
            "inputs": [],
            "name": "symbol",
            "outputs": [
                {
                    "name": "",
                    "type": "string"
                }
            ],
            "payable": false,
            "stateMutability": "view",
            "type": "function"
        },
        {
            "constant": true,
            "inputs": [],
            "name": "sales_end",
            "outputs": [
                {
                    "name": "",
                    "type": "uint256"
                }
            ],
            "payable": false,
            "stateMutability": "view",
            "type": "function"
        },
        {
            "constant": true,
            "inputs": [],
            "name": "deposit",
            "outputs": [
                {
                    "name": "",
                    "type": "address"
                }
            ],
            "payable": false,
            "stateMutability": "view",
            "type": "function"
        },
        {
            "constant": false,
            "inputs": [],
            "name": "continue_ico",
            "outputs": [],
            "payable": false,
            "stateMutability": "nonpayable",
            "type": "function"
        },
        {
            "constant": true,
            "inputs": [
                {
                    "name": "token_owner",
                    "type": "address"
                },
                {
                    "name": "spender",
                    "type": "address"
                }
            ],
            "name": "allowance",
            "outputs": [
                {
                    "name": "",
                    "type": "uint256"
                }
            ],
            "payable": false,
            "stateMutability": "view",
            "type": "function"
        },
        {
            "constant": true,
            "inputs": [
                {
                    "name": "token_owner",
                    "type": "address"
                }
            ],
            "name": "balance",
            "outputs": [
                {
                    "name": "bal",
                    "type": "uint256"
                }
            ],
            "payable": false,
            "stateMutability": "view",
            "type": "function"
        },
        {
            "constant": false,
            "inputs": [],
            "name": "invest",
            "outputs": [
                {
                    "name": "",
                    "type": "bool"
                }
            ],
            "payable": true,
            "stateMutability": "payable",
            "type": "function"
        },
        {
            "constant": true,
            "inputs": [],
            "name": "admin",
            "outputs": [
                {
                    "name": "",
                    "type": "address"
                }
            ],
            "payable": false,
            "stateMutability": "view",
            "type": "function"
        },
        {
            "constant": true,
            "inputs": [
                {
                    "name": "",
                    "type": "address"
                }
            ],
            "name": "bals",
            "outputs": [
                {
                    "name": "",
                    "type": "uint256"
                }
            ],
            "payable": false,
            "stateMutability": "view",
            "type": "function"
        },
        {
            "inputs": [
                {
                    "name": "_deposit",
                    "type": "address"
                }
            ],
            "payable": false,
            "stateMutability": "nonpayable",
            "type": "constructor"
        },
        {
            "payable": true,
            "stateMutability": "payable",
            "type": "fallback"
        },
        {
            "anonymous": false,
            "inputs": [
                {
                    "indexed": false,
                    "name": "investor",
                    "type": "address"
                },
                {
                    "indexed": false,
                    "name": "value",
                    "type": "uint256"
                },
                {
                    "indexed": false,
                    "name": "tokens",
                    "type": "uint256"
                }
            ],
            "name": "Inv",
            "type": "event"
        },
        {
            "anonymous": false,
            "inputs": [
                {
                    "indexed": true,
                    "name": "from",
                    "type": "address"
                },
                {
                    "indexed": true,
                    "name": "to",
                    "type": "address"
                },
                {
                    "indexed": false,
                    "name": "tokens",
                    "type": "uint256"
                }
            ],
            "name": "Tf",
            "type": "event"
        },
        {
            "anonymous": false,
            "inputs": [
                {
                    "indexed": true,
                    "name": "token_owner",
                    "type": "address"
                },
                {
                    "indexed": true,
                    "name": "spender",
                    "type": "address"
                },
                {
                    "indexed": false,
                    "name": "tokens",
                    "type": "uint256"
                }
            ],
            "name": "Apr",
            "type": "event"
        }
    ],
    "bytecode": "60c0604052600360808190527f535044000000000000000000000000000000000000000000000000000000000060a090815261003e9160009190610150565b506040805180820190915260038082527f5350440000000000000000000000000000000000000000000000000000000000602090920191825261008391600191610150565b50600060025567016345785d8a000060098190556064600a5542600c8190556103e88101600d5561044c01600e55600f55678ac7230489e800006010556011805460ff191690553480156100d657600080fd5b50604051602080610d4983398101604090815290516103e860038190556004805433600160a060020a0319918216811792839055600160a060020a0392831660009081526005602052959095209290925560088054831691909316179091556007805490911690911790556011805460ff191690556101eb565b828054600181600116156101000203166002900490600052602060002090601f016020900481019282601f1061019157805160ff19168380011785556101be565b828001600101855582156101be579182015b828111156101be5782518255916020019190600101906101a3565b506101ca9291506101ce565b5090565b6101e891905b808211156101ca57600081556001016101d4565b90565b610b4f806101fa6000396000f30060806040526004361061015d5763ffffffff7c0100000000000000000000000000000000000000000000000000000000600035041662c3f8608114610168578063047fc9aa1461018b57806306fdde03146101b2578063095ea7b31461023c578063200d2ed21461027457806322cbeb4f146102ad5780632bb2c55c146102d1578063313ce567146102e65780633940e9ee146102fb5780633e79885014610310578063585e1af61461033a5780635b04cbb51461034f5780635b6681e8146103645780635f3dffe8146103795780636c00529e1461038e5780637b4fd96e146103a357806387838fb8146103b85780638da5cb5b146103cd57806395d89b41146103fe578063b478c1e014610413578063d0e30db014610428578063d5bc86181461043d578063dd62ed3e14610452578063e3d670d714610479578063e8b5e51f1461049a578063f851a440146104a2578063fcdcc9fb146104b7575b6101656104d8565b50005b34801561017457600080fd5b50610189600160a060020a0360043516610611565b005b34801561019757600080fd5b506101a0610657565b60408051918252519081900360200190f35b3480156101be57600080fd5b506101c761065d565b6040805160208082528351818301528351919283929083019185019080838360005b838110156102015781810151838201526020016101e9565b50505050905090810190601f16801561022e5780820380516001836020036101000a031916815260200191505b509250505060405180910390f35b34801561024857600080fd5b50610260600160a060020a03600435166024356106eb565b604080519115158252519081900360200190f35b34801561028057600080fd5b5061028961077a565b6040518082600381111561029957fe5b60ff16815260200191505060405180910390f35b3480156102b957600080fd5b50610260600160a060020a0360043516602435610783565b3480156102dd57600080fd5b506101a06107a5565b3480156102f257600080fd5b506101a06107ab565b34801561030757600080fd5b506101a06107b1565b34801561031c57600080fd5b50610260600160a060020a03600435811690602435166044356107b8565b34801561034657600080fd5b506101a06107dc565b34801561035b57600080fd5b506102896107e2565b34801561037057600080fd5b506101a061083f565b34801561038557600080fd5b50610189610845565b34801561039a57600080fd5b50610260610873565b3480156103af57600080fd5b506101a06108c8565b3480156103c457600080fd5b506101a06108ce565b3480156103d957600080fd5b506103e26108d4565b60408051600160a060020a039092168252519081900360200190f35b34801561040a57600080fd5b506101c76108e3565b34801561041f57600080fd5b506101a061093d565b34801561043457600080fd5b506103e2610943565b34801561044957600080fd5b50610189610952565b34801561045e57600080fd5b506101a0600160a060020a036004358116906024351661097c565b34801561048557600080fd5b506101a0600160a060020a03600435166109a7565b6102606104d8565b3480156104ae57600080fd5b506103e26109c2565b3480156104c357600080fd5b506101a0600160a060020a03600435166109d1565b6000806104e36107e2565b6011805460ff191660018360038111156104f957fe5b0217905550600160115460ff16600381111561051157fe5b1461051b57600080fd5b600f54341015801561052f57506010543411155b151561053a57600080fd5b6009543481151561054757fe5b049050600a5434600b54011115151561055f57600080fd5b600b80543490810190915533600090815260056020526040808220805485019055600454600160a060020a03908116835281832080548690039055600854915191169280156108fc0292909190818181858888f193505050501580156105c9573d6000803e3d6000fd5b506040805133815234602082015280820183905290517f2ff340b9692fef79f46578457f8035ca8a73c3a172d599e00aab7e8e6441e08f9181900360600190a1600191505090565b600754600160a060020a0316331461062857600080fd5b6008805473ffffffffffffffffffffffffffffffffffffffff1916600160a060020a0392909216919091179055565b60035481565b6000805460408051602060026001851615610100026000190190941693909304601f810184900484028201840190925281815292918301828280156106e35780601f106106b8576101008083540402835291602001916106e3565b820191906000526020600020905b8154815290600101906020018083116106c657829003601f168201915b505050505081565b33600090815260056020526040812054821061070657600080fd5b6000821161071357600080fd5b336000818152600660209081526040808320600160a060020a03881680855290835292819020869055805186815290519293927f2733b37ada2c13f9e9fe425e1b0c95396dbe08bef1c7e5287a89746b9d628b7c929181900390910190a350600192915050565b60115460ff1681565b600e54600090421161079457600080fd5b61079e83836109e3565b5092915050565b600e5481565b60025481565b6003545b90565b600e5460009042116107c957600080fd5b6107d4848484610a78565b509392505050565b600a5481565b6000600360115460ff1660038111156107f757fe5b1415610805575060036107b5565b600c54421015610817575060006107b5565b600c54421015801561082a5750600d5442105b15610837575060016107b5565b5060026107b5565b600b5481565b600754600160a060020a0316331461085c57600080fd5b601180546002919060ff19166001835b0217905550565b600754600090600160a060020a0316331461088d57600080fd5b600260115460ff1660038111156108a057fe5b146108aa57600080fd5b600454600160a060020a031660009081526005602052604081205590565b60095481565b600c5481565b600454600160a060020a031681565b60018054604080516020600284861615610100026000190190941693909304601f810184900484028201840190925281815292918301828280156106e35780601f106106b8576101008083540402835291602001916106e3565b600d5481565b600854600160a060020a031681565b600754600160a060020a0316331461096957600080fd5b601180546001919060ff1916828061086c565b600160a060020a03918216600090815260066020908152604080832093909416825291909152205490565b600160a060020a031660009081526005602052604090205490565b600754600160a060020a031681565b60056020526000908152604090205481565b336000908152600560205260408120548211801590610a025750600082115b1515610a0d57600080fd5b600160a060020a0383166000818152600560209081526040808320805487019055338084529281902080548790039055805186815290517f440abbb3687ab7160fe439e43548adbfa45e575c011e2f669df78a0ccf9f5144929181900390910190a350600192915050565b600160a060020a038084166000908152600660209081526040808320938616835292905290812054821115610aac57600080fd5b600160a060020a038416600090815260056020526040902054821115610ad157600080fd5b50600160a060020a0392831660008181526005602090815260408083208054869003905594909516808252848220805485019055918152600685528381209181529352912080549190910390556001905600a165627a7a7230582059261477669e38313966eb81556945ef623ee72f1a4c4a59435dce44fb7a1fe80029",
    "sourcePath": "/home/pr/Blockchain/AMOC/Contracts/bank.sol",
    "compiler": {
        "name": "solc",
        "version": "0.4.26+commit.4563c3fc"
    },
    "functionHashes": {
        "admin()": "f851a440",
        "allowance(address,address)": "dd62ed3e",
        "approve(address,uint256)": "095ea7b3",
        "balance(address)": "e3d670d7",
        "bals(address)": "fcdcc9fb",
        "burn_tokens()": "6c00529e",
        "continue_ico()": "d5bc8618",
        "current_state()": "5b04cbb5",
        "decimals()": "313ce567",
        "deposit()": "d0e30db0",
        "halt_ico()": "5f3dffe8",
        "hard_cap()": "585e1af6",
        "invest()": "e8b5e51f",
        "name()": "06fdde03",
        "new_deposit(address)": "00c3f860",
        "owner()": "8da5cb5b",
        "raised_amt()": "5b6681e8",
        "sales_end()": "b478c1e0",
        "sales_start()": "87838fb8",
        "status()": "200d2ed2",
        "supply()": "047fc9aa",
        "symbol()": "95d89b41",
        "token_price()": "7b4fd96e",
        "total_supply()": "3940e9ee",
        "trade_start()": "2bb2c55c",
        "transf(address,uint256)": "22cbeb4f",
        "transfer_from(address,address,uint256)": "3e798850"
    },
    "gasEstimates": {
        "creation": {
            "codeDepositCost": "579000",
            "executionCost": "infinite",
            "totalCost": "infinite"
        },
        "external": {
            "": "infinite",
            "admin()": "1087",
            "allowance(address,address)": "1192",
            "approve(address,uint256)": "22715",
            "balance(address)": "1112",
            "bals(address)": "1103",
            "burn_tokens()": "6400",
            "continue_ico()": "21144",
            "current_state()": "1423",
            "decimals()": "538",
            "deposit()": "977",
            "halt_ico()": "20957",
            "hard_cap()": "604",
            "invest()": "infinite",
            "name()": "infinite",
            "new_deposit(address)": "20822",
            "owner()": "911",
            "raised_amt()": "648",
            "sales_end()": "802",
            "sales_start()": "736",
            "status()": "517",
            "supply()": "406",
            "symbol()": "infinite",
            "token_price()": "714",
            "total_supply()": "561",
            "trade_start()": "516",
            "transf(address,uint256)": "43449",
            "transfer_from(address,address,uint256)": "62590"
        }
    }
}